{
  "_format": "hh-sol-artifact-1",
  "contractName": "ERC20",
  "sourceName": "contracts/SudtERC20Proxy.sol",
  "abi": [
    {
      "inputs": [
        {
          "internalType": "string",
          "name": "name_",
          "type": "string"
        },
        {
          "internalType": "string",
          "name": "symbol_",
          "type": "string"
        },
        {
          "internalType": "uint256",
          "name": "totalSupply_",
          "type": "uint256"
        },
        {
          "internalType": "uint256",
          "name": "sudtId_",
          "type": "uint256"
        }
      ],
      "stateMutability": "nonpayable",
      "type": "constructor"
    },
    {
      "anonymous": false,
      "inputs": [
        {
          "indexed": true,
          "internalType": "address",
          "name": "owner",
          "type": "address"
        },
        {
          "indexed": true,
          "internalType": "address",
          "name": "spender",
          "type": "address"
        },
        {
          "indexed": false,
          "internalType": "uint256",
          "name": "value",
          "type": "uint256"
        }
      ],
      "name": "Approval",
      "type": "event"
    },
    {
      "anonymous": false,
      "inputs": [
        {
          "indexed": true,
          "internalType": "address",
          "name": "from",
          "type": "address"
        },
        {
          "indexed": true,
          "internalType": "address",
          "name": "to",
          "type": "address"
        },
        {
          "indexed": false,
          "internalType": "uint256",
          "name": "value",
          "type": "uint256"
        }
      ],
      "name": "Transfer",
      "type": "event"
    },
    {
      "inputs": [
        {
          "internalType": "address",
          "name": "owner",
          "type": "address"
        },
        {
          "internalType": "address",
          "name": "spender",
          "type": "address"
        }
      ],
      "name": "allowance",
      "outputs": [
        {
          "internalType": "uint256",
          "name": "",
          "type": "uint256"
        }
      ],
      "stateMutability": "nonpayable",
      "type": "function"
    },
    {
      "inputs": [
        {
          "internalType": "address",
          "name": "spender",
          "type": "address"
        },
        {
          "internalType": "uint256",
          "name": "amount",
          "type": "uint256"
        }
      ],
      "name": "approve",
      "outputs": [
        {
          "internalType": "bool",
          "name": "",
          "type": "bool"
        }
      ],
      "stateMutability": "nonpayable",
      "type": "function"
    },
    {
      "inputs": [
        {
          "internalType": "address",
          "name": "account",
          "type": "address"
        }
      ],
      "name": "balanceOf",
      "outputs": [
        {
          "internalType": "uint256",
          "name": "",
          "type": "uint256"
        }
      ],
      "stateMutability": "nonpayable",
      "type": "function"
    },
    {
      "inputs": [],
      "name": "decimals",
      "outputs": [
        {
          "internalType": "uint8",
          "name": "",
          "type": "uint8"
        }
      ],
      "stateMutability": "view",
      "type": "function"
    },
    {
      "inputs": [
        {
          "internalType": "address",
          "name": "spender",
          "type": "address"
        },
        {
          "internalType": "uint256",
          "name": "subtractedValue",
          "type": "uint256"
        }
      ],
      "name": "decreaseAllowance",
      "outputs": [
        {
          "internalType": "bool",
          "name": "",
          "type": "bool"
        }
      ],
      "stateMutability": "nonpayable",
      "type": "function"
    },
    {
      "inputs": [
        {
          "internalType": "address",
          "name": "spender",
          "type": "address"
        },
        {
          "internalType": "uint256",
          "name": "addedValue",
          "type": "uint256"
        }
      ],
      "name": "increaseAllowance",
      "outputs": [
        {
          "internalType": "bool",
          "name": "",
          "type": "bool"
        }
      ],
      "stateMutability": "nonpayable",
      "type": "function"
    },
    {
      "inputs": [],
      "name": "name",
      "outputs": [
        {
          "internalType": "string",
          "name": "",
          "type": "string"
        }
      ],
      "stateMutability": "view",
      "type": "function"
    },
    {
      "inputs": [],
      "name": "sudtId",
      "outputs": [
        {
          "internalType": "uint256",
          "name": "",
          "type": "uint256"
        }
      ],
      "stateMutability": "view",
      "type": "function"
    },
    {
      "inputs": [],
      "name": "symbol",
      "outputs": [
        {
          "internalType": "string",
          "name": "",
          "type": "string"
        }
      ],
      "stateMutability": "view",
      "type": "function"
    },
    {
      "inputs": [],
      "name": "totalSupply",
      "outputs": [
        {
          "internalType": "uint256",
          "name": "",
          "type": "uint256"
        }
      ],
      "stateMutability": "view",
      "type": "function"
    },
    {
      "inputs": [
        {
          "internalType": "address",
          "name": "recipient",
          "type": "address"
        },
        {
          "internalType": "uint256",
          "name": "amount",
          "type": "uint256"
        }
      ],
      "name": "transfer",
      "outputs": [
        {
          "internalType": "bool",
          "name": "",
          "type": "bool"
        }
      ],
      "stateMutability": "nonpayable",
      "type": "function"
    },
    {
      "inputs": [
        {
          "internalType": "address",
          "name": "sender",
          "type": "address"
        },
        {
          "internalType": "address",
          "name": "recipient",
          "type": "address"
        },
        {
          "internalType": "uint256",
          "name": "amount",
          "type": "uint256"
        }
      ],
      "name": "transferFrom",
      "outputs": [
        {
          "internalType": "bool",
          "name": "",
          "type": "bool"
        }
      ],
      "stateMutability": "nonpayable",
      "type": "function"
    }
  ],
  "bytecode": "0x60806040523480156200001157600080fd5b5060405162001858380380620018588339818101604052810190620000379190620001ba565b83600390805190602001906200004f92919062000081565b5082600490805190602001906200006892919062000081565b50816001819055508060028190555050505050620003ad565b8280546200008f90620002ff565b90600052602060002090601f016020900481019282620000b35760008555620000ff565b82601f10620000ce57805160ff1916838001178555620000ff565b82800160010185558215620000ff579182015b82811115620000fe578251825591602001919060010190620000e1565b5b5090506200010e919062000112565b5090565b5b808211156200012d57600081600090555060010162000113565b5090565b60006200014862000142846200028c565b62000258565b9050828152602081018484840111156200016157600080fd5b6200016e848285620002c9565b509392505050565b600082601f8301126200018857600080fd5b81516200019a84826020860162000131565b91505092915050565b600081519050620001b48162000393565b92915050565b60008060008060808587031215620001d157600080fd5b600085015167ffffffffffffffff811115620001ec57600080fd5b620001fa8782880162000176565b945050602085015167ffffffffffffffff8111156200021857600080fd5b620002268782880162000176565b93505060406200023987828801620001a3565b92505060606200024c87828801620001a3565b91505092959194509250565b6000604051905081810181811067ffffffffffffffff8211171562000282576200028162000364565b5b8060405250919050565b600067ffffffffffffffff821115620002aa57620002a962000364565b5b601f19601f8301169050602081019050919050565b6000819050919050565b60005b83811015620002e9578082015181840152602081019050620002cc565b83811115620002f9576000848401525b50505050565b600060028204905060018216806200031857607f821691505b602082108114156200032f576200032e62000335565b5b50919050565b7f4e487b7100000000000000000000000000000000000000000000000000000000600052602260045260246000fd5b7f4e487b7100000000000000000000000000000000000000000000000000000000600052604160045260246000fd5b6200039e81620002bf565b8114620003aa57600080fd5b50565b61149b80620003bd6000396000f3fe608060405234801561001057600080fd5b50600436106100b45760003560e01c806370a082311161007157806370a08231146101a357806395d89b41146101d35780639f8dfb59146101f1578063a457c2d71461020f578063a9059cbb1461023f578063dd62ed3e1461026f576100b4565b806306fdde03146100b9578063095ea7b3146100d757806318160ddd1461010757806323b872dd14610125578063313ce567146101555780633950935114610173575b600080fd5b6100c161029f565b6040516100ce9190611150565b60405180910390f35b6100f160048036038101906100ec9190610e2f565b610331565b6040516100fe9190611135565b60405180910390f35b61010f61034f565b60405161011c9190611232565b60405180910390f35b61013f600480360381019061013a9190610de0565b610359565b60405161014c9190611135565b60405180910390f35b61015d610459565b60405161016a919061124d565b60405180910390f35b61018d60048036038101906101889190610e2f565b610462565b60405161019a9190611135565b60405180910390f35b6101bd60048036038101906101b89190610d7b565b61050d565b6040516101ca9190611232565b60405180910390f35b6101db61061e565b6040516101e89190611150565b60405180910390f35b6101f96106b0565b6040516102069190611232565b60405180910390f35b61022960048036038101906102249190610e2f565b6106ba565b6040516102369190611135565b60405180910390f35b61025960048036038101906102549190610e2f565b6107ad565b6040516102669190611135565b60405180910390f35b61028960048036038101906102849190610da4565b6107cb565b6040516102969190611232565b60405180910390f35b6060600380546102ae90611396565b80601f01602080910402602001604051908101604052809291908181526020018280546102da90611396565b80156103275780601f106102fc57610100808354040283529160200191610327565b820191906000526020600020905b81548152906001019060200180831161030a57829003601f168201915b5050505050905090565b600061034561033e610851565b8484610859565b6001905092915050565b6000600154905090565b6000610366848484610a23565b60008060008673ffffffffffffffffffffffffffffffffffffffff1673ffffffffffffffffffffffffffffffffffffffff16815260200190815260200160002060006103b0610851565b73ffffffffffffffffffffffffffffffffffffffff1673ffffffffffffffffffffffffffffffffffffffff16815260200190815260200160002054905082811015610430576040517f08c379a0000000000000000000000000000000000000000000000000000000008152600401610427906111b2565b60405180910390fd5b61044d8561043c610851565b858461044891906112da565b610859565b60019150509392505050565b60006012905090565b600061050361046f610851565b848460008061047c610851565b73ffffffffffffffffffffffffffffffffffffffff1673ffffffffffffffffffffffffffffffffffffffff16815260200190815260200160002060008873ffffffffffffffffffffffffffffffffffffffff1673ffffffffffffffffffffffffffffffffffffffff168152602001908152602001600020546104fe9190611284565b610859565b6001905092915050565b6000610517610ceb565b60025481600060028110610554577f4e487b7100000000000000000000000000000000000000000000000000000000600052603260045260246000fd5b6020020181815250508273ffffffffffffffffffffffffffffffffffffffff16816001600281106105ae577f4e487b7100000000000000000000000000000000000000000000000000000000600052603260045260246000fd5b6020020181815250506105bf610d0d565b602081604084600060f0600019f16105d657600080fd5b80600060018110610610577f4e487b7100000000000000000000000000000000000000000000000000000000600052603260045260246000fd5b602002015192505050919050565b60606004805461062d90611396565b80601f016020809104026020016040519081016040528092919081815260200182805461065990611396565b80156106a65780601f1061067b576101008083540402835291602001916106a6565b820191906000526020600020905b81548152906001019060200180831161068957829003601f168201915b5050505050905090565b6000600254905090565b6000806000806106c8610851565b73ffffffffffffffffffffffffffffffffffffffff1673ffffffffffffffffffffffffffffffffffffffff16815260200190815260200160002060008573ffffffffffffffffffffffffffffffffffffffff1673ffffffffffffffffffffffffffffffffffffffff16815260200190815260200160002054905082811015610785576040517f08c379a000000000000000000000000000000000000000000000000000000000815260040161077c90611212565b60405180910390fd5b6107a2610790610851565b85858461079d91906112da565b610859565b600191505092915050565b60006107c16107ba610851565b8484610a23565b6001905092915050565b60008060008473ffffffffffffffffffffffffffffffffffffffff1673ffffffffffffffffffffffffffffffffffffffff16815260200190815260200160002060008373ffffffffffffffffffffffffffffffffffffffff1673ffffffffffffffffffffffffffffffffffffffff16815260200190815260200160002054905092915050565b600033905090565b600073ffffffffffffffffffffffffffffffffffffffff168373ffffffffffffffffffffffffffffffffffffffff1614156108c9576040517f08c379a00000000000000000000000000000000000000000000000000000000081526004016108c0906111f2565b60405180910390fd5b600073ffffffffffffffffffffffffffffffffffffffff168273ffffffffffffffffffffffffffffffffffffffff161415610939576040517f08c379a000000000000000000000000000000000000000000000000000000000815260040161093090611192565b60405180910390fd5b806000808573ffffffffffffffffffffffffffffffffffffffff1673ffffffffffffffffffffffffffffffffffffffff16815260200190815260200160002060008473ffffffffffffffffffffffffffffffffffffffff1673ffffffffffffffffffffffffffffffffffffffff168152602001908152602001600020819055508173ffffffffffffffffffffffffffffffffffffffff168373ffffffffffffffffffffffffffffffffffffffff167f8c5be1e5ebec7d5bd14f71427d1e84f3dd0314c0f7b2291e5b200ac8c7c3b92583604051610a169190611232565b60405180910390a3505050565b600073ffffffffffffffffffffffffffffffffffffffff168373ffffffffffffffffffffffffffffffffffffffff161415610a93576040517f08c379a0000000000000000000000000000000000000000000000000000000008152600401610a8a906111d2565b60405180910390fd5b600073ffffffffffffffffffffffffffffffffffffffff168273ffffffffffffffffffffffffffffffffffffffff161415610b03576040517f08c379a0000000000000000000000000000000000000000000000000000000008152600401610afa90611172565b60405180910390fd5b610b15610b0e610851565b8383610ce6565b610b1d610d2f565b60025481600060048110610b5a577f4e487b7100000000000000000000000000000000000000000000000000000000600052603260045260246000fd5b6020020181815250508373ffffffffffffffffffffffffffffffffffffffff1681600160048110610bb4577f4e487b7100000000000000000000000000000000000000000000000000000000600052603260045260246000fd5b6020020181815250508273ffffffffffffffffffffffffffffffffffffffff1681600260048110610c0e577f4e487b7100000000000000000000000000000000000000000000000000000000600052603260045260246000fd5b6020020181815250508181600360048110610c52577f4e487b7100000000000000000000000000000000000000000000000000000000600052603260045260246000fd5b602002018181525050610c63610d0d565b602081608084600060f1600019f1610c7a57600080fd5b8373ffffffffffffffffffffffffffffffffffffffff168573ffffffffffffffffffffffffffffffffffffffff167fddf252ad1be2c89b69c2b068fc378daa952ba7f163c4a11628f55a4df523b3ef85604051610cd79190611232565b60405180910390a35050505050565b505050565b6040518060400160405280600290602082028036833780820191505090505090565b6040518060200160405280600190602082028036833780820191505090505090565b6040518060800160405280600490602082028036833780820191505090505090565b600081359050610d6081611437565b92915050565b600081359050610d758161144e565b92915050565b600060208284031215610d8d57600080fd5b6000610d9b84828501610d51565b91505092915050565b60008060408385031215610db757600080fd5b6000610dc585828601610d51565b9250506020610dd685828601610d51565b9150509250929050565b600080600060608486031215610df557600080fd5b6000610e0386828701610d51565b9350506020610e1486828701610d51565b9250506040610e2586828701610d66565b9150509250925092565b60008060408385031215610e4257600080fd5b6000610e5085828601610d51565b9250506020610e6185828601610d66565b9150509250929050565b610e7481611320565b82525050565b6000610e8582611268565b610e8f8185611273565b9350610e9f818560208601611363565b610ea881611426565b840191505092915050565b6000610ec0602383611273565b91507f45524332303a207472616e7366657220746f20746865207a65726f206164647260008301527f65737300000000000000000000000000000000000000000000000000000000006020830152604082019050919050565b6000610f26602283611273565b91507f45524332303a20617070726f766520746f20746865207a65726f20616464726560008301527f73730000000000000000000000000000000000000000000000000000000000006020830152604082019050919050565b6000610f8c602883611273565b91507f45524332303a207472616e7366657220616d6f756e742065786365656473206160008301527f6c6c6f77616e63650000000000000000000000000000000000000000000000006020830152604082019050919050565b6000610ff2602583611273565b91507f45524332303a207472616e736665722066726f6d20746865207a65726f20616460008301527f64726573730000000000000000000000000000000000000000000000000000006020830152604082019050919050565b6000611058602483611273565b91507f45524332303a20617070726f76652066726f6d20746865207a65726f2061646460008301527f72657373000000000000000000000000000000000000000000000000000000006020830152604082019050919050565b60006110be602583611273565b91507f45524332303a2064656372656173656420616c6c6f77616e63652062656c6f7760008301527f207a65726f0000000000000000000000000000000000000000000000000000006020830152604082019050919050565b6111208161134c565b82525050565b61112f81611356565b82525050565b600060208201905061114a6000830184610e6b565b92915050565b6000602082019050818103600083015261116a8184610e7a565b905092915050565b6000602082019050818103600083015261118b81610eb3565b9050919050565b600060208201905081810360008301526111ab81610f19565b9050919050565b600060208201905081810360008301526111cb81610f7f565b9050919050565b600060208201905081810360008301526111eb81610fe5565b9050919050565b6000602082019050818103600083015261120b8161104b565b9050919050565b6000602082019050818103600083015261122b816110b1565b9050919050565b60006020820190506112476000830184611117565b92915050565b60006020820190506112626000830184611126565b92915050565b600081519050919050565b600082825260208201905092915050565b600061128f8261134c565b915061129a8361134c565b9250827fffffffffffffffffffffffffffffffffffffffffffffffffffffffffffffffff038211156112cf576112ce6113c8565b5b828201905092915050565b60006112e58261134c565b91506112f08361134c565b925082821015611303576113026113c8565b5b828203905092915050565b60006113198261132c565b9050919050565b60008115159050919050565b600073ffffffffffffffffffffffffffffffffffffffff82169050919050565b6000819050919050565b600060ff82169050919050565b60005b83811015611381578082015181840152602081019050611366565b83811115611390576000848401525b50505050565b600060028204905060018216806113ae57607f821691505b602082108114156113c2576113c16113f7565b5b50919050565b7f4e487b7100000000000000000000000000000000000000000000000000000000600052601160045260246000fd5b7f4e487b7100000000000000000000000000000000000000000000000000000000600052602260045260246000fd5b6000601f19601f8301169050919050565b6114408161130e565b811461144b57600080fd5b50565b6114578161134c565b811461146257600080fd5b5056fea26469706673582212207f0115e1b5a854b8c7eb49157a90b773065fac0e93976c708f538f6e33688e0e64736f6c63430008000033",
  "linkReferences": {},
  "deployedLinkReferences": {}
}