{
  "contracts/Voting.sol": {
    "Voting": {
      "abi": [
        {
          "constant": true,
          "inputs": [
            {
              "name": "candidate",
              "type": "bytes32"
            }
          ],
          "name": "totalVotesFor",
          "outputs": [
            {
              "name": "",
              "type": "uint8"
            }
          ],
          "payable": false,
          "stateMutability": "view",
          "type": "function"
        },
        {
          "constant": true,
          "inputs": [
            {
              "name": "candidate",
              "type": "bytes32"
            }
          ],
          "name": "validCandidate",
          "outputs": [
            {
              "name": "",
              "type": "bool"
            }
          ],
          "payable": false,
          "stateMutability": "view",
          "type": "function"
        },
        {
          "constant": true,
          "inputs": [
            {
              "name": "",
              "type": "bytes32"
            }
          ],
          "name": "votesReceived",
          "outputs": [
            {
              "name": "",
              "type": "uint8"
            }
          ],
          "payable": false,
          "stateMutability": "view",
          "type": "function"
        },
        {
          "constant": true,
          "inputs": [
            {
              "name": "",
              "type": "uint256"
            }
          ],
          "name": "candidateList",
          "outputs": [
            {
              "name": "",
              "type": "bytes32"
            }
          ],
          "payable": false,
          "stateMutability": "view",
          "type": "function"
        },
        {
          "constant": false,
          "inputs": [
            {
              "name": "candidate",
              "type": "bytes32"
            }
          ],
          "name": "voteForCandidate",
          "outputs": [],
          "payable": false,
          "stateMutability": "nonpayable",
          "type": "function"
        },
        {
          "inputs": [
            {
              "name": "candidateNames",
              "type": "bytes32[]"
            }
          ],
          "payable": false,
          "stateMutability": "nonpayable",
          "type": "constructor"
        }
      ],
      "devdoc": {
        "methods": {}
      },
      "evm": {
        "assembly": "    /* \"contracts/Voting.sol\":26:782  contract Voting {... */\n  mstore(0x40, 0x60)\n    /* \"contracts/Voting.sol\":140:230  function Voting(bytes32[] candidateNames) public {... */\n  jumpi(tag_1, iszero(callvalue))\n  0x0\n  dup1\n  revert\ntag_1:\n  mload(0x40)\n  sub(codesize, bytecodeSize)\n  dup1\n  bytecodeSize\n  dup4\n  codecopy\n  dup2\n  add\n  0x40\n  mstore\n  dup1\n  dup1\n  mload\n  dup3\n  add\n  swap2\n  swap1\n  pop\n  pop\n    /* \"contracts/Voting.sol\":211:225  candidateNames */\n  dup1\n    /* \"contracts/Voting.sol\":195:208  candidateList */\n  0x1\n    /* \"contracts/Voting.sol\":195:225  candidateList = candidateNames */\n  swap1\n  dup1\n  mload\n  swap1\n  0x20\n  add\n  swap1\n  tag_4\n  swap3\n  swap2\n  swap1\n  jump\t// in(tag_5)\ntag_4:\n  pop\n    /* \"contracts/Voting.sol\":140:230  function Voting(bytes32[] candidateNames) public {... */\n  pop\n    /* \"contracts/Voting.sol\":26:782  contract Voting {... */\n  jump(tag_6)\ntag_5:\n  dup3\n  dup1\n  sload\n  dup3\n  dup3\n  sstore\n  swap1\n  0x0\n  mstore\n  keccak256(0x0, 0x20)\n  swap1\n  dup2\n  add\n  swap3\n  dup3\n  iszero\n  tag_7\n  jumpi\n  swap2\n  0x20\n  mul\n  dup3\n  add\ntag_8:\n  dup3\n  dup2\n  gt\n  iszero\n  tag_9\n  jumpi\n  dup3\n  mload\n  dup3\n  swap1\n  not(0x0)\n  and\n  swap1\n  sstore\n  swap2\n  0x20\n  add\n  swap2\n  swap1\n  0x1\n  add\n  swap1\n  jump(tag_8)\ntag_9:\ntag_7:\n  pop\n  swap1\n  pop\n  tag_10\n  swap2\n  swap1\n  jump\t// in(tag_11)\ntag_10:\n  pop\n  swap1\n  jump\t// out\ntag_11:\n  tag_12\n  swap2\n  swap1\ntag_13:\n  dup1\n  dup3\n  gt\n  iszero\n  tag_14\n  jumpi\n  0x0\n  dup2\n  0x0\n  swap1\n  sstore\n  pop\n  0x1\n  add\n  jump(tag_13)\ntag_14:\n  pop\n  swap1\n  jump\ntag_12:\n  swap1\n  jump\t// out\ntag_6:\n  dataSize(sub_0)\n  dup1\n  dataOffset(sub_0)\n  0x0\n  codecopy\n  0x0\n  return\nstop\n\nsub_0: assembly {\n        /* \"contracts/Voting.sol\":26:782  contract Voting {... */\n      mstore(0x40, 0x60)\n      jumpi(tag_1, lt(calldatasize, 0x4))\n      calldataload(0x0)\n      0x100000000000000000000000000000000000000000000000000000000\n      swap1\n      div\n      0xffffffff\n      and\n      dup1\n      0x2f265cf7\n      eq\n      tag_2\n      jumpi\n      dup1\n      0x392e6678\n      eq\n      tag_3\n      jumpi\n      dup1\n      0x7021939f\n      eq\n      tag_4\n      jumpi\n      dup1\n      0xb13c744b\n      eq\n      tag_5\n      jumpi\n      dup1\n      0xcc9ab267\n      eq\n      tag_6\n      jumpi\n    tag_1:\n      0x0\n      dup1\n      revert\n        /* \"contracts/Voting.sol\":234:386  function totalVotesFor(bytes32 candidate) view public returns (uint8) {... */\n    tag_2:\n      jumpi(tag_7, iszero(callvalue))\n      0x0\n      dup1\n      revert\n    tag_7:\n      tag_8\n      0x4\n      dup1\n      dup1\n      calldataload\n      not(0x0)\n      and\n      swap1\n      0x20\n      add\n      swap1\n      swap2\n      swap1\n      pop\n      pop\n      jump(tag_9)\n    tag_8:\n      mload(0x40)\n      dup1\n      dup3\n      0xff\n      and\n      0xff\n      and\n      dup2\n      mstore\n      0x20\n      add\n      swap2\n      pop\n      pop\n      mload(0x40)\n      dup1\n      swap2\n      sub\n      swap1\n      return\n        /* \"contracts/Voting.sol\":528:778  function validCandidate(bytes32 candidate) view public returns (bool) {... */\n    tag_3:\n      jumpi(tag_10, iszero(callvalue))\n      0x0\n      dup1\n      revert\n    tag_10:\n      tag_11\n      0x4\n      dup1\n      dup1\n      calldataload\n      not(0x0)\n      and\n      swap1\n      0x20\n      add\n      swap1\n      swap2\n      swap1\n      pop\n      pop\n      jump(tag_12)\n    tag_11:\n      mload(0x40)\n      dup1\n      dup3\n      iszero\n      iszero\n      iszero\n      iszero\n      dup2\n      mstore\n      0x20\n      add\n      swap2\n      pop\n      pop\n      mload(0x40)\n      dup1\n      swap2\n      sub\n      swap1\n      return\n        /* \"contracts/Voting.sol\":49:96  mapping (bytes32 => uint8) public votesReceived */\n    tag_4:\n      jumpi(tag_13, iszero(callvalue))\n      0x0\n      dup1\n      revert\n    tag_13:\n      tag_14\n      0x4\n      dup1\n      dup1\n      calldataload\n      not(0x0)\n      and\n      swap1\n      0x20\n      add\n      swap1\n      swap2\n      swap1\n      pop\n      pop\n      jump(tag_15)\n    tag_14:\n      mload(0x40)\n      dup1\n      dup3\n      0xff\n      and\n      0xff\n      and\n      dup2\n      mstore\n      0x20\n      add\n      swap2\n      pop\n      pop\n      mload(0x40)\n      dup1\n      swap2\n      sub\n      swap1\n      return\n        /* \"contracts/Voting.sol\":103:133  bytes32[] public candidateList */\n    tag_5:\n      jumpi(tag_16, iszero(callvalue))\n      0x0\n      dup1\n      revert\n    tag_16:\n      tag_17\n      0x4\n      dup1\n      dup1\n      calldataload\n      swap1\n      0x20\n      add\n      swap1\n      swap2\n      swap1\n      pop\n      pop\n      jump(tag_18)\n    tag_17:\n      mload(0x40)\n      dup1\n      dup3\n      not(0x0)\n      and\n      not(0x0)\n      and\n      dup2\n      mstore\n      0x20\n      add\n      swap2\n      pop\n      pop\n      mload(0x40)\n      dup1\n      swap2\n      sub\n      swap1\n      return\n        /* \"contracts/Voting.sol\":390:522  function voteForCandidate(bytes32 candidate) public {... */\n    tag_6:\n      jumpi(tag_19, iszero(callvalue))\n      0x0\n      dup1\n      revert\n    tag_19:\n      tag_20\n      0x4\n      dup1\n      dup1\n      calldataload\n      not(0x0)\n      and\n      swap1\n      0x20\n      add\n      swap1\n      swap2\n      swap1\n      pop\n      pop\n      jump(tag_21)\n    tag_20:\n      stop\n        /* \"contracts/Voting.sol\":234:386  function totalVotesFor(bytes32 candidate) view public returns (uint8) {... */\n    tag_9:\n        /* \"contracts/Voting.sol\":297:302  uint8 */\n      0x0\n        /* \"contracts/Voting.sol\":318:343  validCandidate(candidate) */\n      tag_23\n        /* \"contracts/Voting.sol\":333:342  candidate */\n      dup3\n        /* \"contracts/Voting.sol\":318:332  validCandidate */\n      tag_12\n        /* \"contracts/Voting.sol\":318:343  validCandidate(candidate) */\n      jump\t// in\n    tag_23:\n        /* \"contracts/Voting.sol\":310:344  require(validCandidate(candidate)) */\n      iszero\n      iszero\n      tag_24\n      jumpi\n      0x0\n      dup1\n      revert\n    tag_24:\n        /* \"contracts/Voting.sol\":357:370  votesReceived */\n      0x0\n        /* \"contracts/Voting.sol\":357:381  votesReceived[candidate] */\n      dup1\n        /* \"contracts/Voting.sol\":371:380  candidate */\n      dup4\n        /* \"contracts/Voting.sol\":357:381  votesReceived[candidate] */\n      not(0x0)\n      and\n      not(0x0)\n      and\n      dup2\n      mstore\n      0x20\n      add\n      swap1\n      dup2\n      mstore\n      0x20\n      add\n      0x0\n      keccak256\n      0x0\n      swap1\n      sload\n      swap1\n      0x100\n      exp\n      swap1\n      div\n      0xff\n      and\n        /* \"contracts/Voting.sol\":350:381  return votesReceived[candidate] */\n      swap1\n      pop\n        /* \"contracts/Voting.sol\":234:386  function totalVotesFor(bytes32 candidate) view public returns (uint8) {... */\n      swap2\n      swap1\n      pop\n      jump\t// out\n        /* \"contracts/Voting.sol\":528:778  function validCandidate(bytes32 candidate) view public returns (bool) {... */\n    tag_12:\n        /* \"contracts/Voting.sol\":592:596  bool */\n      0x0\n        /* \"contracts/Voting.sol\":610:616  uint i */\n      dup1\n        /* \"contracts/Voting.sol\":619:620  0 */\n      0x0\n        /* \"contracts/Voting.sol\":610:620  uint i = 0 */\n      swap1\n      pop\n        /* \"contracts/Voting.sol\":606:748  for(uint i = 0; i < candidateList.length; i++) {... */\n    tag_26:\n        /* \"contracts/Voting.sol\":626:639  candidateList */\n      0x1\n        /* \"contracts/Voting.sol\":626:646  candidateList.length */\n      dup1\n      sload\n      swap1\n      pop\n        /* \"contracts/Voting.sol\":622:623  i */\n      dup2\n        /* \"contracts/Voting.sol\":622:646  i < candidateList.length */\n      lt\n        /* \"contracts/Voting.sol\":606:748  for(uint i = 0; i < candidateList.length; i++) {... */\n      iszero\n      tag_27\n      jumpi\n        /* \"contracts/Voting.sol\":689:698  candidate */\n      dup3\n        /* \"contracts/Voting.sol\":669:698  candidateList[i] == candidate */\n      not(0x0)\n      and\n        /* \"contracts/Voting.sol\":669:682  candidateList */\n      0x1\n        /* \"contracts/Voting.sol\":683:684  i */\n      dup3\n        /* \"contracts/Voting.sol\":669:685  candidateList[i] */\n      dup2\n      sload\n      dup2\n      lt\n      iszero\n      iszero\n      tag_29\n      jumpi\n      invalid\n    tag_29:\n      swap1\n      0x0\n      mstore\n      keccak256(0x0, 0x20)\n      swap1\n      add\n      sload\n        /* \"contracts/Voting.sol\":669:698  candidateList[i] == candidate */\n      not(0x0)\n      and\n      eq\n        /* \"contracts/Voting.sol\":665:738  if (candidateList[i] == candidate) {... */\n      iszero\n      tag_31\n      jumpi\n        /* \"contracts/Voting.sol\":721:725  true */\n      0x1\n        /* \"contracts/Voting.sol\":714:725  return true */\n      swap2\n      pop\n      jump(tag_25)\n        /* \"contracts/Voting.sol\":665:738  if (candidateList[i] == candidate) {... */\n    tag_31:\n        /* \"contracts/Voting.sol\":648:651  i++ */\n      dup1\n      dup1\n      0x1\n      add\n      swap2\n      pop\n      pop\n        /* \"contracts/Voting.sol\":606:748  for(uint i = 0; i < candidateList.length; i++) {... */\n      jump(tag_26)\n    tag_27:\n        /* \"contracts/Voting.sol\":764:769  false */\n      0x0\n        /* \"contracts/Voting.sol\":757:769  return false */\n      swap2\n      pop\n        /* \"contracts/Voting.sol\":528:778  function validCandidate(bytes32 candidate) view public returns (bool) {... */\n    tag_25:\n      pop\n      swap2\n      swap1\n      pop\n      jump\t// out\n        /* \"contracts/Voting.sol\":49:96  mapping (bytes32 => uint8) public votesReceived */\n    tag_15:\n      mstore(0x20, 0x0)\n      dup1\n      0x0\n      mstore\n      keccak256(0x0, 0x40)\n      0x0\n      swap2\n      pop\n      sload\n      swap1\n      0x100\n      exp\n      swap1\n      div\n      0xff\n      and\n      dup2\n      jump\t// out\n        /* \"contracts/Voting.sol\":103:133  bytes32[] public candidateList */\n    tag_18:\n      0x1\n      dup2\n      dup2\n      sload\n      dup2\n      lt\n      iszero\n      iszero\n      tag_32\n      jumpi\n      invalid\n    tag_32:\n      swap1\n      0x0\n      mstore\n      keccak256(0x0, 0x20)\n      swap1\n      add\n      0x0\n      swap2\n      pop\n      swap1\n      pop\n      sload\n      dup2\n      jump\t// out\n        /* \"contracts/Voting.sol\":390:522  function voteForCandidate(bytes32 candidate) public {... */\n    tag_21:\n        /* \"contracts/Voting.sol\":456:481  validCandidate(candidate) */\n      tag_35\n        /* \"contracts/Voting.sol\":471:480  candidate */\n      dup2\n        /* \"contracts/Voting.sol\":456:470  validCandidate */\n      tag_12\n        /* \"contracts/Voting.sol\":456:481  validCandidate(candidate) */\n      jump\t// in\n    tag_35:\n        /* \"contracts/Voting.sol\":448:482  require(validCandidate(candidate)) */\n      iszero\n      iszero\n      tag_36\n      jumpi\n      0x0\n      dup1\n      revert\n    tag_36:\n        /* \"contracts/Voting.sol\":516:517  1 */\n      0x1\n        /* \"contracts/Voting.sol\":488:501  votesReceived */\n      0x0\n        /* \"contracts/Voting.sol\":488:512  votesReceived[candidate] */\n      dup1\n        /* \"contracts/Voting.sol\":502:511  candidate */\n      dup4\n        /* \"contracts/Voting.sol\":488:512  votesReceived[candidate] */\n      not(0x0)\n      and\n      not(0x0)\n      and\n      dup2\n      mstore\n      0x20\n      add\n      swap1\n      dup2\n      mstore\n      0x20\n      add\n      0x0\n      keccak256\n      0x0\n        /* \"contracts/Voting.sol\":488:517  votesReceived[candidate] += 1 */\n      dup3\n      dup3\n      dup3\n      swap1\n      sload\n      swap1\n      0x100\n      exp\n      swap1\n      div\n      0xff\n      and\n      add\n      swap3\n      pop\n      0x100\n      exp\n      dup2\n      sload\n      dup2\n      0xff\n      mul\n      not\n      and\n      swap1\n      dup4\n      0xff\n      and\n      mul\n      or\n      swap1\n      sstore\n      pop\n        /* \"contracts/Voting.sol\":390:522  function voteForCandidate(bytes32 candidate) public {... */\n      pop\n      jump\t// out\n\n    auxdata: 0xa165627a7a72305820dd3e5fc668324a3d74a06934e797440ed814ce95dcb0f4cd0e6c8162c73ab92a0029\n}\n",
        "bytecode": {
          "linkReferences": {},
          "object": "6060604052341561000f57600080fd5b6040516103da3803806103da833981016040528080518201919050508060019080519060200190610041929190610048565b50506100c0565b82805482825590600052602060002090810192821561008a579160200282015b82811115610089578251829060001916905591602001919060010190610068565b5b509050610097919061009b565b5090565b6100bd91905b808211156100b95760008160009055506001016100a1565b5090565b90565b61030b806100cf6000396000f30060606040526004361061006d576000357c0100000000000000000000000000000000000000000000000000000000900463ffffffff1680632f265cf714610072578063392e6678146100b35780637021939f146100f2578063b13c744b14610133578063cc9ab26714610172575b600080fd5b341561007d57600080fd5b610097600480803560001916906020019091905050610199565b604051808260ff1660ff16815260200191505060405180910390f35b34156100be57600080fd5b6100d86004808035600019169060200190919050506101de565b604051808215151515815260200191505060405180910390f35b34156100fd57600080fd5b61011760048080356000191690602001909190505061023e565b604051808260ff1660ff16815260200191505060405180910390f35b341561013e57600080fd5b610154600480803590602001909190505061025e565b60405180826000191660001916815260200191505060405180910390f35b341561017d57600080fd5b610197600480803560001916906020019091905050610282565b005b60006101a4826101de565b15156101af57600080fd5b600080836000191660001916815260200190815260200160002060009054906101000a900460ff169050919050565b600080600090505b60018054905081101561023357826000191660018281548110151561020757fe5b9060005260206000209001546000191614156102265760019150610238565b80806001019150506101e6565b600091505b50919050565b60006020528060005260406000206000915054906101000a900460ff1681565b60018181548110151561026d57fe5b90600052602060002090016000915090505481565b61028b816101de565b151561029657600080fd5b6001600080836000191660001916815260200190815260200160002060008282829054906101000a900460ff160192506101000a81548160ff021916908360ff160217905550505600a165627a7a72305820dd3e5fc668324a3d74a06934e797440ed814ce95dcb0f4cd0e6c8162c73ab92a0029",
          "opcodes": "PUSH1 0x60 PUSH1 0x40 MSTORE CALLVALUE ISZERO PUSH2 0xF JUMPI PUSH1 0x0 DUP1 REVERT JUMPDEST PUSH1 0x40 MLOAD PUSH2 0x3DA CODESIZE SUB DUP1 PUSH2 0x3DA DUP4 CODECOPY DUP2 ADD PUSH1 0x40 MSTORE DUP1 DUP1 MLOAD DUP3 ADD SWAP2 SWAP1 POP POP DUP1 PUSH1 0x1 SWAP1 DUP1 MLOAD SWAP1 PUSH1 0x20 ADD SWAP1 PUSH2 0x41 SWAP3 SWAP2 SWAP1 PUSH2 0x48 JUMP JUMPDEST POP POP PUSH2 0xC0 JUMP JUMPDEST DUP3 DUP1 SLOAD DUP3 DUP3 SSTORE SWAP1 PUSH1 0x0 MSTORE PUSH1 0x20 PUSH1 0x0 KECCAK256 SWAP1 DUP2 ADD SWAP3 DUP3 ISZERO PUSH2 0x8A JUMPI SWAP2 PUSH1 0x20 MUL DUP3 ADD JUMPDEST DUP3 DUP2 GT ISZERO PUSH2 0x89 JUMPI DUP3 MLOAD DUP3 SWAP1 PUSH1 0x0 NOT AND SWAP1 SSTORE SWAP2 PUSH1 0x20 ADD SWAP2 SWAP1 PUSH1 0x1 ADD SWAP1 PUSH2 0x68 JUMP JUMPDEST JUMPDEST POP SWAP1 POP PUSH2 0x97 SWAP2 SWAP1 PUSH2 0x9B JUMP JUMPDEST POP SWAP1 JUMP JUMPDEST PUSH2 0xBD SWAP2 SWAP1 JUMPDEST DUP1 DUP3 GT ISZERO PUSH2 0xB9 JUMPI PUSH1 0x0 DUP2 PUSH1 0x0 SWAP1 SSTORE POP PUSH1 0x1 ADD PUSH2 0xA1 JUMP JUMPDEST POP SWAP1 JUMP JUMPDEST SWAP1 JUMP JUMPDEST PUSH2 0x30B DUP1 PUSH2 0xCF PUSH1 0x0 CODECOPY PUSH1 0x0 RETURN STOP PUSH1 0x60 PUSH1 0x40 MSTORE PUSH1 0x4 CALLDATASIZE LT PUSH2 0x6D JUMPI PUSH1 0x0 CALLDATALOAD PUSH29 0x100000000000000000000000000000000000000000000000000000000 SWAP1 DIV PUSH4 0xFFFFFFFF AND DUP1 PUSH4 0x2F265CF7 EQ PUSH2 0x72 JUMPI DUP1 PUSH4 0x392E6678 EQ PUSH2 0xB3 JUMPI DUP1 PUSH4 0x7021939F EQ PUSH2 0xF2 JUMPI DUP1 PUSH4 0xB13C744B EQ PUSH2 0x133 JUMPI DUP1 PUSH4 0xCC9AB267 EQ PUSH2 0x172 JUMPI JUMPDEST PUSH1 0x0 DUP1 REVERT JUMPDEST CALLVALUE ISZERO PUSH2 0x7D JUMPI PUSH1 0x0 DUP1 REVERT JUMPDEST PUSH2 0x97 PUSH1 0x4 DUP1 DUP1 CALLDATALOAD PUSH1 0x0 NOT AND SWAP1 PUSH1 0x20 ADD SWAP1 SWAP2 SWAP1 POP POP PUSH2 0x199 JUMP JUMPDEST PUSH1 0x40 MLOAD DUP1 DUP3 PUSH1 0xFF AND PUSH1 0xFF AND DUP2 MSTORE PUSH1 0x20 ADD SWAP2 POP POP PUSH1 0x40 MLOAD DUP1 SWAP2 SUB SWAP1 RETURN JUMPDEST CALLVALUE ISZERO PUSH2 0xBE JUMPI PUSH1 0x0 DUP1 REVERT JUMPDEST PUSH2 0xD8 PUSH1 0x4 DUP1 DUP1 CALLDATALOAD PUSH1 0x0 NOT AND SWAP1 PUSH1 0x20 ADD SWAP1 SWAP2 SWAP1 POP POP PUSH2 0x1DE JUMP JUMPDEST PUSH1 0x40 MLOAD DUP1 DUP3 ISZERO ISZERO ISZERO ISZERO DUP2 MSTORE PUSH1 0x20 ADD SWAP2 POP POP PUSH1 0x40 MLOAD DUP1 SWAP2 SUB SWAP1 RETURN JUMPDEST CALLVALUE ISZERO PUSH2 0xFD JUMPI PUSH1 0x0 DUP1 REVERT JUMPDEST PUSH2 0x117 PUSH1 0x4 DUP1 DUP1 CALLDATALOAD PUSH1 0x0 NOT AND SWAP1 PUSH1 0x20 ADD SWAP1 SWAP2 SWAP1 POP POP PUSH2 0x23E JUMP JUMPDEST PUSH1 0x40 MLOAD DUP1 DUP3 PUSH1 0xFF AND PUSH1 0xFF AND DUP2 MSTORE PUSH1 0x20 ADD SWAP2 POP POP PUSH1 0x40 MLOAD DUP1 SWAP2 SUB SWAP1 RETURN JUMPDEST CALLVALUE ISZERO PUSH2 0x13E JUMPI PUSH1 0x0 DUP1 REVERT JUMPDEST PUSH2 0x154 PUSH1 0x4 DUP1 DUP1 CALLDATALOAD SWAP1 PUSH1 0x20 ADD SWAP1 SWAP2 SWAP1 POP POP PUSH2 0x25E JUMP JUMPDEST PUSH1 0x40 MLOAD DUP1 DUP3 PUSH1 0x0 NOT AND PUSH1 0x0 NOT AND DUP2 MSTORE PUSH1 0x20 ADD SWAP2 POP POP PUSH1 0x40 MLOAD DUP1 SWAP2 SUB SWAP1 RETURN JUMPDEST CALLVALUE ISZERO PUSH2 0x17D JUMPI PUSH1 0x0 DUP1 REVERT JUMPDEST PUSH2 0x197 PUSH1 0x4 DUP1 DUP1 CALLDATALOAD PUSH1 0x0 NOT AND SWAP1 PUSH1 0x20 ADD SWAP1 SWAP2 SWAP1 POP POP PUSH2 0x282 JUMP JUMPDEST STOP JUMPDEST PUSH1 0x0 PUSH2 0x1A4 DUP3 PUSH2 0x1DE JUMP JUMPDEST ISZERO ISZERO PUSH2 0x1AF JUMPI PUSH1 0x0 DUP1 REVERT JUMPDEST PUSH1 0x0 DUP1 DUP4 PUSH1 0x0 NOT AND PUSH1 0x0 NOT AND DUP2 MSTORE PUSH1 0x20 ADD SWAP1 DUP2 MSTORE PUSH1 0x20 ADD PUSH1 0x0 KECCAK256 PUSH1 0x0 SWAP1 SLOAD SWAP1 PUSH2 0x100 EXP SWAP1 DIV PUSH1 0xFF AND SWAP1 POP SWAP2 SWAP1 POP JUMP JUMPDEST PUSH1 0x0 DUP1 PUSH1 0x0 SWAP1 POP JUMPDEST PUSH1 0x1 DUP1 SLOAD SWAP1 POP DUP2 LT ISZERO PUSH2 0x233 JUMPI DUP3 PUSH1 0x0 NOT AND PUSH1 0x1 DUP3 DUP2 SLOAD DUP2 LT ISZERO ISZERO PUSH2 0x207 JUMPI INVALID JUMPDEST SWAP1 PUSH1 0x0 MSTORE PUSH1 0x20 PUSH1 0x0 KECCAK256 SWAP1 ADD SLOAD PUSH1 0x0 NOT AND EQ ISZERO PUSH2 0x226 JUMPI PUSH1 0x1 SWAP2 POP PUSH2 0x238 JUMP JUMPDEST DUP1 DUP1 PUSH1 0x1 ADD SWAP2 POP POP PUSH2 0x1E6 JUMP JUMPDEST PUSH1 0x0 SWAP2 POP JUMPDEST POP SWAP2 SWAP1 POP JUMP JUMPDEST PUSH1 0x0 PUSH1 0x20 MSTORE DUP1 PUSH1 0x0 MSTORE PUSH1 0x40 PUSH1 0x0 KECCAK256 PUSH1 0x0 SWAP2 POP SLOAD SWAP1 PUSH2 0x100 EXP SWAP1 DIV PUSH1 0xFF AND DUP2 JUMP JUMPDEST PUSH1 0x1 DUP2 DUP2 SLOAD DUP2 LT ISZERO ISZERO PUSH2 0x26D JUMPI INVALID JUMPDEST SWAP1 PUSH1 0x0 MSTORE PUSH1 0x20 PUSH1 0x0 KECCAK256 SWAP1 ADD PUSH1 0x0 SWAP2 POP SWAP1 POP SLOAD DUP2 JUMP JUMPDEST PUSH2 0x28B DUP2 PUSH2 0x1DE JUMP JUMPDEST ISZERO ISZERO PUSH2 0x296 JUMPI PUSH1 0x0 DUP1 REVERT JUMPDEST PUSH1 0x1 PUSH1 0x0 DUP1 DUP4 PUSH1 0x0 NOT AND PUSH1 0x0 NOT AND DUP2 MSTORE PUSH1 0x20 ADD SWAP1 DUP2 MSTORE PUSH1 0x20 ADD PUSH1 0x0 KECCAK256 PUSH1 0x0 DUP3 DUP3 DUP3 SWAP1 SLOAD SWAP1 PUSH2 0x100 EXP SWAP1 DIV PUSH1 0xFF AND ADD SWAP3 POP PUSH2 0x100 EXP DUP2 SLOAD DUP2 PUSH1 0xFF MUL NOT AND SWAP1 DUP4 PUSH1 0xFF AND MUL OR SWAP1 SSTORE POP POP JUMP STOP LOG1 PUSH6 0x627A7A723058 KECCAK256 0xdd RETURNDATACOPY 0x5f 0xc6 PUSH9 0x324A3D74A06934E797 DIFFICULTY 0xe 0xd8 EQ 0xce SWAP6 0xdc 0xb0 DELEGATECALL 0xcd 0xe PUSH13 0x8162C73AB92A00290000000000 "
        },
        "gasEstimates": {
          "creation": {
            "codeDepositCost": "155800",
            "executionCost": "infinite",
            "totalCost": "infinite"
          },
          "external": {
            "candidateList(uint256)": "806",
            "totalVotesFor(bytes32)": "infinite",
            "validCandidate(bytes32)": "infinite",
            "voteForCandidate(bytes32)": "infinite",
            "votesReceived(bytes32)": "586"
          }
        },
        "methodIdentifiers": {
          "candidateList(uint256)": "b13c744b",
          "totalVotesFor(bytes32)": "2f265cf7",
          "validCandidate(bytes32)": "392e6678",
          "voteForCandidate(bytes32)": "cc9ab267",
          "votesReceived(bytes32)": "7021939f"
        }
      },
      "userdoc": {
        "methods": {}
      }
    }
  }
}